{
  "contractName": "Dice",
  "abi": [
    {
      "constant": false,
      "inputs": [
        {
          "name": "player_addr",
          "type": "address"
        },
        {
          "name": "amount",
          "type": "uint256"
        }
      ],
      "name": "safeSend",
      "outputs": [],
      "payable": true,
      "stateMutability": "payable",
      "type": "function"
    },
    {
      "constant": true,
      "inputs": [
        {
          "name": "",
          "type": "address"
        }
      ],
      "name": "player",
      "outputs": [
        {
          "name": "",
          "type": "uint256"
        }
      ],
      "payable": false,
      "stateMutability": "view",
      "type": "function"
    },
    {
      "constant": false,
      "inputs": [
        {
          "name": "gasAmount",
          "type": "uint256"
        }
      ],
      "name": "configGas",
      "outputs": [
        {
          "name": "",
          "type": "uint256"
        }
      ],
      "payable": false,
      "stateMutability": "nonpayable",
      "type": "function"
    },
    {
      "constant": false,
      "inputs": [
        {
          "name": "gasAmount",
          "type": "uint256"
        }
      ],
      "name": "random",
      "outputs": [
        {
          "name": "randomNumber",
          "type": "uint64"
        }
      ],
      "payable": false,
      "stateMutability": "nonpayable",
      "type": "function"
    },
    {
      "constant": true,
      "inputs": [
        {
          "name": "",
          "type": "address"
        }
      ],
      "name": "gasFee",
      "outputs": [
        {
          "name": "",
          "type": "uint256"
        }
      ],
      "payable": false,
      "stateMutability": "view",
      "type": "function"
    },
    {
      "constant": false,
      "inputs": [
        {
          "name": "gasAmount",
          "type": "uint256"
        }
      ],
      "name": "changeAdmin",
      "outputs": [
        {
          "name": "",
          "type": "uint256"
        }
      ],
      "payable": false,
      "stateMutability": "nonpayable",
      "type": "function"
    },
    {
      "constant": false,
      "inputs": [
        {
          "name": "amount",
          "type": "uint256"
        }
      ],
      "name": "getContractBalance",
      "outputs": [
        {
          "name": "",
          "type": "uint256"
        }
      ],
      "payable": false,
      "stateMutability": "nonpayable",
      "type": "function"
    },
    {
      "constant": false,
      "inputs": [],
      "name": "destroy",
      "outputs": [
        {
          "name": "",
          "type": "uint256"
        }
      ],
      "payable": false,
      "stateMutability": "nonpayable",
      "type": "function"
    },
    {
      "constant": true,
      "inputs": [
        {
          "name": "amount",
          "type": "uint256"
        }
      ],
      "name": "minBet",
      "outputs": [
        {
          "name": "",
          "type": "uint256"
        }
      ],
      "payable": false,
      "stateMutability": "view",
      "type": "function"
    },
    {
      "constant": false,
      "inputs": [
        {
          "name": "amount",
          "type": "uint256"
        }
      ],
      "name": "configHouseEdge",
      "outputs": [
        {
          "name": "",
          "type": "uint256"
        }
      ],
      "payable": false,
      "stateMutability": "nonpayable",
      "type": "function"
    },
    {
      "inputs": [
        {
          "name": "amount",
          "type": "uint256"
        }
      ],
      "payable": false,
      "stateMutability": "nonpayable",
      "type": "function",
      "constant": false,
      "name": "configMinBet",
      "outputs": [
        {
          "name": "",
          "type": "uint256"
        }
      ]
    },
    {
      "anonymous": false,
      "inputs": [
        {
          "indexed": false,
          "name": "amount",
          "type": "uint256"
        },
        {
          "indexed": false,
          "name": "_amount",
          "type": "uint256"
        }
      ],
      "name": "houseEdge",
      "type": "function",
      "constant": true,
      "outputs": [
        {
          "name": "",
          "type": "uint256"
        }
      ],
      "payable": false,
      "stateMutability": "view"
    },
    {
      "anonymous": false,
      "inputs": [
        {
          "indexed": false,
          "name": "addr",
          "type": "address"
        },
        {
          "indexed": false,
          "name": "_amount",
          "type": "uint256"
        }
      ],
      "name": "getPlayerBalance",
      "type": "function",
      "constant": false,
      "outputs": [
        {
          "name": "",
          "type": "uint256"
        }
      ],
      "payable": false,
      "stateMutability": "nonpayable"
    },
    {
      "anonymous": false,
      "inputs": [
        {
          "indexed": false,
          "name": "amount",
          "type": "uint256"
        },
        {
          "indexed": false,
          "name": "_amount",
          "type": "uint256"
        }
      ],
      "name": "transferToExternal",
      "type": "function",
      "constant": false,
      "outputs": [
        {
          "name": "",
          "type": "uint256"
        }
      ],
      "payable": false,
      "stateMutability": "nonpayable"
    },
    {
      "anonymous": false,
      "inputs": [
        {
          "indexed": false,
          "name": "addr",
          "type": "address"
        },
        {
          "indexed": false,
          "name": "amount",
          "type": "uint256"
        }
      ],
      "name": "bet",
      "type": "function",
      "payable": true,
      "stateMutability": "payable",
      "constant": false,
      "outputs": [
        {
          "name": "",
          "type": "uint256"
        },
        {
          "name": "",
          "type": "uint256"
        }
      ]
    },
    {
      "anonymous": false,
      "inputs": [
        {
          "indexed": false,
          "name": "addr",
          "type": "address"
        },
        {
          "indexed": false,
          "name": "_amount",
          "type": "uint256"
        },
        {
          "indexed": false,
          "name": "round_id",
          "type": "uint256"
        }
      ],
      "name": "admin",
      "type": "function",
      "payable": false,
      "stateMutability": "view",
      "constant": true,
      "outputs": [
        {
          "name": "",
          "type": "address"
        }
      ]
    },
    {
      "anonymous": false,
      "inputs": [
        {
          "indexed": false,
          "name": "amount",
          "type": "uint256"
        },
        {
          "indexed": false,
          "name": "_amount",
          "type": "uint256"
        },
        {
          "indexed": false,
          "name": "round_id",
          "type": "uint256"
        }
      ],
      "name": "transferToExternal",
      "type": "constructor",
      "constant": false,
      "outputs": [],
      "payable": true,
      "stateMutability": "payable"
    },
    {
      "anonymous": false,
      "inputs": [
        {
          "indexed": false,
          "name": "_from",
          "type": "address"
        },
        {
          "indexed": false,
          "name": "_amount",
          "type": "uint256"
        },
        {
          "indexed": false,
          "name": "round_id",
          "type": "uint256"
        }
      ],
      "name": "LOG_StartBet",
      "type": "event",
      "constant": true,
      "outputs": [
        {
          "name": "",
          "type": "address"
        }
      ],
      "payable": false,
      "stateMutability": "view"
    },
    {
      "anonymous": false,
      "inputs": [
        {
          "indexed": false,
          "name": "_from",
          "type": "address"
        },
        {
          "indexed": false,
          "name": "_amount",
          "type": "uint256"
        },
        {
          "indexed": false,
          "name": "round_id",
          "type": "uint256"
        }
      ],
      "name": "LOG_EndBet",
      "type": "event",
      "payable": true,
      "stateMutability": "payable"
    },
    {
      "anonymous": false,
      "inputs": [
        {
          "indexed": false,
          "name": "_from",
          "type": "address"
        },
        {
          "indexed": false,
          "name": "_amount",
          "type": "uint256"
        },
        {
          "indexed": false,
          "name": "round_id",
          "type": "uint256"
        }
      ],
      "name": "LOG_LessThanMinBet",
      "type": "event"
    },
    {
      "anonymous": false,
      "inputs": [
        {
          "indexed": false,
          "name": "_from",
          "type": "address"
        },
        {
          "indexed": false,
          "name": "_amount",
          "type": "uint256"
        },
        {
          "indexed": false,
          "name": "round_id",
          "type": "uint256"
        }
      ],
      "name": "LOG_TrasferToExtSuccess",
      "type": "event"
    },
    {
      "anonymous": false,
      "inputs": [
        {
          "indexed": false,
          "name": "_from",
          "type": "address"
        },
        {
          "indexed": false,
          "name": "_amount",
          "type": "uint256"
        }
      ],
      "name": "LOG_TransferToExtFail",
      "type": "event"
    },
    {
      "anonymous": false,
      "inputs": [
        {
          "indexed": false,
          "name": "_from",
          "type": "address"
        },
        {
          "indexed": false,
          "name": "_amount",
          "type": "uint256"
        }
      ],
      "name": "LOG_LessAmountToPlayer",
      "type": "event"
    },
    {
      "anonymous": false,
      "inputs": [
        {
          "indexed": false,
          "name": "admin",
          "type": "address"
        },
        {
          "indexed": false,
          "name": "_amount",
          "type": "uint256"
        }
      ],
      "name": "LOG_GetCurrentBalance",
      "type": "event"
    },
    {
      "anonymous": false,
      "inputs": [
        {
          "indexed": false,
          "name": "admin",
          "type": "address"
        },
        {
          "indexed": false,
          "name": "_amount",
          "type": "uint256"
        }
      ],
      "name": "LOG_SafeSendSuccess",
      "type": "event"
    },
    {
      "anonymous": false,
      "inputs": [
        {
          "indexed": false,
          "name": "admin",
          "type": "address"
        },
        {
          "indexed": false,
          "name": "_amount",
          "type": "uint256"
        }
      ],
      "name": "LOG_SafeSendFail",
      "type": "event"
    },
    {
      "anonymous": false,
      "inputs": [
        {
          "indexed": false,
          "name": "admin",
          "type": "address"
        },
        {
          "indexed": false,
          "name": "_amount",
          "type": "uint256"
        }
      ],
      "name": "LOG_SafeSendSuccess",
      "type": "event"
    },
    {
      "anonymous": false,
      "inputs": [
        {
          "indexed": false,
          "name": "admin",
          "type": "address"
        },
        {
          "indexed": false,
          "name": "_amount",
          "type": "uint256"
        }
      ],
      "name": "LOG_SafeSendFail",
      "type": "event"
    }
  ],
  "bytecode": "0x606060405260008060006101000a81548167ffffffffffffffff021916908367ffffffffffffffff160217905550600060015566038d7ea4c680006002556108fc60045560be60055533600360006101000a81548173ffffffffffffffffffffffffffffffffffffffff021916908373ffffffffffffffffffffffffffffffffffffffff160217905550611055806100986000396000f3006060604052600436106100e6576000357c0100000000000000000000000000000000000000000000000000000000900463ffffffff16806307ad9ecb146100eb5780634c54e1b51461012257806350dc1a941461016f5780635ec01e4d14610192578063658612e9146101cf578063663261d7146101f85780636f9fb98a1461020d57806383197ef0146102365780639619367d1461024b5780639c6ebe7214610274578063b525e1e214610297578063d667dcd7146102ba578063e2734c93146102e3578063f760bf7714610330578063f846cabc14610353578063f851a440146103a5575b600080fd5b610120600480803573ffffffffffffffffffffffffffffffffffffffff169060200190919080359060200190919050506103fa565b005b341561012d57600080fd5b610159600480803573ffffffffffffffffffffffffffffffffffffffff1690602001909190505061060a565b6040518082815260200191505060405180910390f35b341561017a57600080fd5b6101906004808035906020019091905050610622565b005b341561019d57600080fd5b6101a5610688565b604051808267ffffffffffffffff1667ffffffffffffffff16815260200191505060405180910390f35b34156101da57600080fd5b6101e2610781565b6040518082815260200191505060405180910390f35b341561020357600080fd5b61020b610787565b005b341561021857600080fd5b610220610826565b6040518082815260200191505060405180910390f35b341561024157600080fd5b61024961096f565b005b341561025657600080fd5b61025e610a06565b6040518082815260200191505060405180910390f35b341561027f57600080fd5b6102956004808035906020019091905050610a0c565b005b34156102a257600080fd5b6102b86004808035906020019091905050610a72565b005b34156102c557600080fd5b6102cd610ad8565b6040518082815260200191505060405180910390f35b34156102ee57600080fd5b61031a600480803573ffffffffffffffffffffffffffffffffffffffff16906020019091905050610ade565b6040518082815260200191505060405180910390f35b341561033b57600080fd5b6103516004808035906020019091905050610c2d565b005b610388600480803573ffffffffffffffffffffffffffffffffffffffff16906020019091908035906020019091905050610e2c565b604051808381526020018281526020019250505060405180910390f35b34156103b057600080fd5b6103b8611003565b604051808273ffffffffffffffffffffffffffffffffffffffff1673ffffffffffffffffffffffffffffffffffffffff16815260200191505060405180910390f35b600360009054906101000a900473ffffffffffffffffffffffffffffffffffffffff1673ffffffffffffffffffffffffffffffffffffffff163373ffffffffffffffffffffffffffffffffffffffff1614151561045657600080fd5b600081141561046457610606565b803073ffffffffffffffffffffffffffffffffffffffff163110156104f3577f03af80dabdc13a25938035639c6c7031b08f2897a28fb9fdff4e239e216bb7388282604051808373ffffffffffffffffffffffffffffffffffffffff1673ffffffffffffffffffffffffffffffffffffffff1681526020018281526020019250505060405180910390a161059a565b8173ffffffffffffffffffffffffffffffffffffffff1660045482604051600060405180830381858888f193505050501515610599577f94c8c25a5bebf1f4edebc59f5bff082dc91add60411195a6fa0ffbe9d27d7fb48282604051808373ffffffffffffffffffffffffffffffffffffffff1673ffffffffffffffffffffffffffffffffffffffff1681526020018281526020019250505060405180910390a1600080fd5b5b7f9b119f8d24efb3f17526ecd670872f62be1bcb1b1624328a584121c23d5853a68282604051808373ffffffffffffffffffffffffffffffffffffffff1673ffffffffffffffffffffffffffffffffffffffff1681526020018281526020019250505060405180910390a15b5050565b60066020528060005260406000206000915090505481565b600360009054906101000a900473ffffffffffffffffffffffffffffffffffffffff1673ffffffffffffffffffffffffffffffffffffffff163373ffffffffffffffffffffffffffffffffffffffff1614151561067e57600080fd5b8060048190555050565b600043406000809054906101000a900467ffffffffffffffff166040518083600019166000191681526020018267ffffffffffffffff1667ffffffffffffffff16780100000000000000000000000000000000000000000000000002815260080192505050604051809103902042604051808360001916600019168152602001828152602001925050506040518091039020600190046000806101000a81548167ffffffffffffffff021916908367ffffffffffffffff16021790555061271067ffffffffffffffff166000809054906101000a900467ffffffffffffffff1667ffffffffffffffff1681151561077b57fe5b06905090565b60045481565b600360009054906101000a900473ffffffffffffffffffffffffffffffffffffffff1673ffffffffffffffffffffffffffffffffffffffff163373ffffffffffffffffffffffffffffffffffffffff161415156107e357600080fd5b33600360006101000a81548173ffffffffffffffffffffffffffffffffffffffff021916908373ffffffffffffffffffffffffffffffffffffffff160217905550565b6000600360009054906101000a900473ffffffffffffffffffffffffffffffffffffffff1673ffffffffffffffffffffffffffffffffffffffff163373ffffffffffffffffffffffffffffffffffffffff1614151561088457600080fd5b7f51a0c3ef7afeb618f189a8bf47b58fb329d6fec02f7f5ccaa730109090be2e04303073ffffffffffffffffffffffffffffffffffffffff1631604051808373ffffffffffffffffffffffffffffffffffffffff1673ffffffffffffffffffffffffffffffffffffffff1681526020018281526020019250505060405180910390a167016345785d8a0000600660003373ffffffffffffffffffffffffffffffffffffffff1673ffffffffffffffffffffffffffffffffffffffff168152602001908152602001600020819055503073ffffffffffffffffffffffffffffffffffffffff1631905090565b600360009054906101000a900473ffffffffffffffffffffffffffffffffffffffff1673ffffffffffffffffffffffffffffffffffffffff163373ffffffffffffffffffffffffffffffffffffffff161415156109cb57600080fd5b600360009054906101000a900473ffffffffffffffffffffffffffffffffffffffff1673ffffffffffffffffffffffffffffffffffffffff16ff5b60025481565b600360009054906101000a900473ffffffffffffffffffffffffffffffffffffffff1673ffffffffffffffffffffffffffffffffffffffff163373ffffffffffffffffffffffffffffffffffffffff16141515610a6857600080fd5b8060028190555050565b600360009054906101000a900473ffffffffffffffffffffffffffffffffffffffff1673ffffffffffffffffffffffffffffffffffffffff163373ffffffffffffffffffffffffffffffffffffffff16141515610ace57600080fd5b8060028190555050565b60055481565b6000600360009054906101000a900473ffffffffffffffffffffffffffffffffffffffff1673ffffffffffffffffffffffffffffffffffffffff163373ffffffffffffffffffffffffffffffffffffffff16141515610b3c57600080fd5b7f51a0c3ef7afeb618f189a8bf47b58fb329d6fec02f7f5ccaa730109090be2e0482600660008573ffffffffffffffffffffffffffffffffffffffff1673ffffffffffffffffffffffffffffffffffffffff16815260200190815260200160002054604051808373ffffffffffffffffffffffffffffffffffffffff1673ffffffffffffffffffffffffffffffffffffffff1681526020018281526020019250505060405180910390a1600660008373ffffffffffffffffffffffffffffffffffffffff1673ffffffffffffffffffffffffffffffffffffffff168152602001908152602001600020549050919050565b600360009054906101000a900473ffffffffffffffffffffffffffffffffffffffff1673ffffffffffffffffffffffffffffffffffffffff163373ffffffffffffffffffffffffffffffffffffffff16141515610c8957600080fd5b6000813073ffffffffffffffffffffffffffffffffffffffff163103131515610d3a577fe3d86fd0b02c2e4b8d74a4232d9bca3917f10413a745e538ca5fe3a9099b6285600360009054906101000a900473ffffffffffffffffffffffffffffffffffffffff1682604051808373ffffffffffffffffffffffffffffffffffffffff1673ffffffffffffffffffffffffffffffffffffffff1681526020018281526020019250505060405180910390a15b600360009054906101000a900473ffffffffffffffffffffffffffffffffffffffff1673ffffffffffffffffffffffffffffffffffffffff166108fc829081150290604051600060405180830381858888f193505050501515610d9c57600080fd5b7f469356f52e8e230302a83a79e849481153533353cac24edb41b1b9b3036e9bc2600360009054906101000a900473ffffffffffffffffffffffffffffffffffffffff1682604051808373ffffffffffffffffffffffffffffffffffffffff1673ffffffffffffffffffffffffffffffffffffffff1681526020018281526020019250505060405180910390a150565b6000806000806000600254861015610eb6577f6face06ceea27e2618ccb85aa817155963f3b6631912148e145146a25a3bb7b48787604051808373ffffffffffffffffffffffffffffffffffffffff1673ffffffffffffffffffffffffffffffffffffffff1681526020018281526020019250505060405180910390a16001548694509450610ff9565b6001600081548092919060010191905055507f1a8559993df573c5e800ec3ad4d715e21df533dbe3aaf61e1a34fd726566731d8787600154604051808473ffffffffffffffffffffffffffffffffffffffff1673ffffffffffffffffffffffffffffffffffffffff168152602001838152602001828152602001935050505060405180910390a1610f45610688565b92506004548603915061271067ffffffffffffffff166005546002850267ffffffffffffffff16038302811515610f7857fe5b0490507f831405511d02e154fbde84c7b8a98a2f1b27faeefdda78c0e10cfe3a4c9f93da8782600154604051808473ffffffffffffffffffffffffffffffffffffffff1673ffffffffffffffffffffffffffffffffffffffff168152602001838152602001828152602001935050505060405180910390a160015481945094505b5050509250929050565b600360009054906101000a900473ffffffffffffffffffffffffffffffffffffffff16815600a165627a7a723058207bba30ed40e9eee5baaad88bc6dc1c0a0c2a480b3b8664b87874830ba82de47d0029",
  "source": "// Dicero\n// current contract address:\npragma solidity ^0.4.10;\n\ncontract Dice {\n  uint64 seed = 0;\n  uint64 constant upper = 10000;\n\n  uint256 round_id = 0;\n  uint public minBet = 1 finney;\n  address public admin;\n\n  uint public gasFee = 2300;\n  uint public houseEdge = 190; //houseEdge(10000 = 100%)\n  mapping(address => uint) public player;\n\n  event LOG_StartBet(address _from, uint _amount, uint256 round_id);\n  event LOG_EndBet(address _from, uint _amount, uint256 round_id);\n  event LOG_LessThanMinBet(address _from, uint _amount);\n  event LOG_TrasferToExtSuccess(address _from, uint _amount);\n  event LOG_TransferToExtFail(address _from, uint _amount);\n  event LOG_LessAmountToPlayer(address _from, uint _amount);\n  event LOG_GetCurrentBalance(address admin, uint _amount);\n  event LOG_SafeSendSuccess(address admin, uint _amount);\n  event LOG_SafeSendFail(address admin, uint _amount);\n\n  function Dice()  public payable {\n    // constructor\n    admin = msg.sender;\n  }\n\n  // ============ This is a game =========/\n  function bet(address addr, uint amount) public payable returns(uint256, uint) {\n\n    if ( amount < minBet) {\n      LOG_LessThanMinBet(addr, amount);\n      return (round_id, amount);\n    }\n    round_id++;\n    LOG_StartBet(addr, amount, round_id);\n\n    //player[addr] = amount;\n    uint64 rand_num = random();\n    uint bet_value = amount - gasFee;\n    uint player_result = bet_value * (rand_num * 2 - houseEdge) / upper;\n    LOG_EndBet(addr, player_result, round_id);\n    return (round_id, player_result);\n  }\n\n  // internal helper function\n  // return a pseudo random number between lower and upper bounds\n  // given the number of previous blocks it should hash.\n  function random() public returns (uint64 randomNumber) {\n    seed = uint64(keccak256(keccak256(block.blockhash(block.number), seed), now));\n    return seed % upper;\n  }\n\n  modifier onlyAdmin {\n    require(msg.sender == admin);\n    _;\n  }\n\n  // admin setting.\n  function configGas(uint gasAmount) public onlyAdmin {\n    gasFee = gasAmount;\n  }\n\n  function configMinBet(uint amount) public onlyAdmin {\n    minBet = amount;\n  }\n\n  function configHouseEdge(uint amount) public onlyAdmin {\n    minBet = amount;\n  }\n\n  function changeAdmin() public onlyAdmin {\n    admin = msg.sender;\n  }\n\n  // functionality.\n\n  function getContractBalance() public onlyAdmin returns(uint) {\n      LOG_GetCurrentBalance(this, this.balance);\n      player[msg.sender] = 100 finney;\n      return this.balance;\n  }\n\n  function getPlayerBalance(address addr) public onlyAdmin returns(uint) {\n      LOG_GetCurrentBalance(addr, player[addr]);\n  \t\treturn player[addr];\n  }\n\n  function transferToExternal(uint amount) public onlyAdmin {\n    if(int(this.balance - amount) <= 0) {\n        LOG_TransferToExtFail(admin, amount);\n    }\n    admin.transfer(amount);\n    LOG_TrasferToExtSuccess(admin, amount);\n  }\n\n  function safeSend(address player_addr, uint amount) public payable onlyAdmin {\n      if(amount == 0){\n        return;\n      }\n\n      if(this.balance < amount) {\n         LOG_LessAmountToPlayer(player_addr, amount);\n         //TODO\n\n      }else {\n\n        if (!(player_addr.call.gas(gasFee).value(amount)())){\n          LOG_SafeSendFail(player_addr, amount);\n          revert();\n        }\n      }\n\n     LOG_SafeSendSuccess(player_addr, amount);\n  }\n\n  function destroy() public onlyAdmin {\n    selfdestruct(admin);\n  }\n}\n",
  "sourcePath": "/Users/chenxi/Project/dicero_sc/contracts/Dice.sol",
  "compiler": {
    "name": "solc",
    "version": "0.4.18+commit.9cf6e910.Emscripten.clang"
  },
  "schemaVersion": "1.0.1",
  "updatedAt": "2017-12-03T02:56:19.062Z"
}